:020000040800F2
:10000000782D0020990100089506000825040008B5
:100010009106000841020008FD0F000800000000E2
:1000200000000000000000000000000001010008C6
:10003000E10200080000000045010008950F0008DB
:10004000B3010008B3010008B3010008B3010008C0
:10005000B3010008B3010008B3010008B3010008B0
:10006000B3010008B3010008B3010008B3010008A0
:10007000B3010008B3010008B3010008B301000890
:10008000B3010008B3010008B3010008B301000880
:10009000B3010008B3010008B3010008B301000870
:1000A000B3010008B3010008B3010008B301000860
:1000B000B3010008B3010008B3010008B301000850
:1000C000B3010008B3010008B3010008B301000840
:1000D000B3010008B3010008B3010008B301000830
:1000E000B3010008B3010008B3010008DFF80CD029
:1000F00000F08CF800480047C5130008782D002058
:10010000224B19680868B0E8F00F80F30988BFF344
:100110006F8F4FF0000080F311884EF00D0E704786
:100120000000000006480068006880F3088862B696
:1001300061B6BFF34F8FBFF36F8F00DF00BF00BF0B
:1001400008ED00E0EFF30980BFF36F8F0F4B1A68E3
:1001500020E9F00F106008B54FF0BF0080F3118860
:10016000BFF34F8FBFF36F8F01F0C4FF4FF000005C
:1001700080F31188BDE8084019680868B0E8F00FFE
:1001800080F30988BFF36F8F704700BF1400002011
:10019000EFF3058070470000064880470648004797
:1001A000FEE7FEE7FEE7FEE7FEE7FEE7FEE7FEE727
:1001B000FEE7FEE79D0F0008ED000008D2B201E067
:1001C00000F8012B491EFBD270470022F6E710B55C
:1001D00013460A4604461946FFF7F0FF204610BDB5
:1001E00030B50B46014600202022012409E021FA07
:1001F00002F59D4205D303FA02F5491B04FA02F504
:100200002844151EA2F10102F1DC30BD064C074D59
:1002100006E0E06840F0010394E8070098471034D6
:10022000AC42F6D3FFF766FF1C2E00083C2E0008F8
:1002300010B5012000F092FC002000F08FFC10BDF2
:1002400000BFFEE700F0805111B10349086001E0F2
:100250000249486070470000040402400000024068
:1002600021B1026842F00102026004E002684FF628
:10027000FE731A400260704701460020002201F020
:10028000805313B1054B1A6801E0054B1A6802EA66
:1002900001030BB1012000E0002070470004024080
:1002A0000000024010B50022026847F6F0739A433E
:1002B0000C6A8B6823430C6923434C6923438C6984
:1002C0002343CC6923434C6A23438C6A23431A4358
:1002D0000260CB6843600B6883604B68C36010BDED
:1002E00070472DE9F041024600250026002000233A
:1002F0000024002791F803C00CF00F0591F803C00B
:100300000CF0100CBCF1000F03D091F802C04CEAC5
:10031000050591F800C0BCF1000F31D01468002031
:100320002BE04FF0010C0CFA00F3B1F800C00CEA1E
:1003300003069E4220D183004FF00F0C0CFA03F706
:10034000BC4305FA03FC4CEA040491F803C0BCF179
:10035000280F06D14FF0010C0CFA00FCC2F814C0B3
:100360000AE091F803C0BCF1480F05D14FF0010C31
:100370000CFA00FCC2F810C0401C0828D1D314604D
:10038000B1F800C0BCF1FF0F34DD546800202EE04E
:1003900000F1080C4FF0010808FA0CF3B1F800C0A6
:1003A0000CEA03069E4221D183004FF00F0C0CFA99
:1003B00003F7BC4305FA03FC4CEA040491F803C0BC
:1003C000BCF1280F05D100F1080C08FA0CF8C2F8AE
:1003D000148091F803C0BCF1480F07D100F1080C5C
:1003E0004FF0010808FA0CF8C2F81080401C0828E9
:1003F000CED35460BDE8F0810246002093680B40E4
:100400000BB1012000E00020704702460020D368B5
:100410000B400BB1012000E00020704741617047A4
:100420000161704700BFFEE770B502460024002559
:1004300000230020958A138B1B0445EA030626F04F
:100440007F4404EA01068E4201D1012000E0002031
:1004500070BD21B1028842F00102028004E00288EE
:100460004FF6FE731A400280704721B1828842F431
:100470000062828004E082884FF2FF731A4082801B
:10048000704721B1028842F48072028004E0028841
:100490004FF6FF631A400280704721B1028842F490
:1004A0000072028004E002884FF6FF531A40028077
:1004B00070470CB502460020002301930093009280
:1004C0000B0F019321F07F41019B1BB1009B143363
:1004D000009303E0090C009B18330093009B1B68FA
:1004E0000B400BB1012000E000200CBD2DE9F043D2
:1004F00085B004460D460026B1460427DFF8CC80BF
:10050000A6884FF6C0700640684600F02DFBDDF867
:1005100008802F48B8FBF0F01FFA80F946EA090678
:10052000A68020884FF6FE710840208000262949C9
:10053000286888420CD828684000B8FBF0F087B2E1
:10054000042F00DA04273E4309F10100208427E04C
:10055000E8884BF6FF71884206D1286800EB40001E
:10056000B8FBF0F087B209E0286800EBC00101EBAE
:100570000010B8FBF0F087B247F48047C7F30B00D8
:1005800008B947F0010747F4004006434FF496705E
:1005900009FB00F04FF47A7190FBF1F0401C2084CD
:1005A000A683208840F00100208026884FF6F53091
:1005B0000640A8886989084306432680A8892989B6
:1005C0000843208105B0BDE8F083000000127A00E6
:1005D00040420F00A086010012B141F0010102E08B
:1005E0004FF6FE7319400182704701827047000088
:1005F00008B50121082000F0A1FA48208DF8030079
:1006000040F60200ADF8000003208DF802006946B4
:100610000148FFF766FE08BD000C014010B502213D
:100620000148FFF7FDFE10BD0008014010B5022192
:100630000148FFF7F3FE10BD0008014010B504218A
:100640000148FFF7EDFE10BD0008014010B5042180
:100650000148FFF7E3FE10BD0008014008B5012185
:10066000042000F06BFA10208DF803000620ADF88E
:10067000000003208DF8020069460448FFF731FEB0
:1006800006210248FFF7CCFE08BD0000000801402B
:1006900000BFFEE7704710B5A0B080216846FFF7A5
:1006A00094FD002409E00021204600F0DEF88021BE
:1006B000684600F0CBF9601CC4B2082CF3DB20B014
:1006C00010BD000000B58BB00121084600F016FAFD
:1006D0000C48009000200190102002900020039010
:1006E00004908020059000200690079008904FF419
:1006F0000050099000200A9069460348FFF7D2FD98
:100700000BB000BD105400406C00024000B585B035
:100710000121082000F012FA0121480500F0FEF93D
:100720001C208DF8130003208DF81200C020ADF8B6
:10073000100004A90F48FFF7D4FD0020ADF8040015
:100740004BF6FF70ADF806000020ADF80800ADF8DC
:100750000A004FF48040ADF80C000748009069464D
:100760000648FFF7C3FE01210448FFF772FE05B0FB
:1007700000BD0000000C0140801A0600005400403B
:1007800070B504460D4642F2107603E0701E061E58
:1007900000D170BD29462046FFF746FE0028F5D05F
:1007A0000120F6E770B5002406E0002500E06D1C8E
:1007B000B5F57A7FFBD3641CB4F57A7FF5D3FFF7E8
:1007C000A5FFFFF77FFFAE2000F0D0F8D52000F0A6
:1007D000CDF8802000F0CAF8A82000F0C7F83F202C
:1007E00000F0C4F8D32000F0C1F8002000F0BEF8FB
:1007F000402000F0BBF8A12000F0B8F8C82000F0BD
:10080000B5F8DA2000F0B2F8122000F0AFF881203D
:1008100000F0ACF8CF2000F0A9F8D92000F0A6F83D
:10082000F12000F0A3F8DB2000F0A0F8302000F069
:100830009DF8A42000F09AF8A62000F097F88D20EB
:1008400000F094F8142000F091F8AF2000F08EF83A
:10085000FFF721FF70BD10B50246012000E05043B4
:100860000B1EA1F10101FAD110BD70B505460C4671
:1008700045F0B00000F07AF8102141EA141000F0C1
:1008800075F804F00F0000F071F870BD2DE9F0412B
:1008900005460E461746721ED206110E6A1E5206F5
:1008A000100EFFF7E2FF002409E0A7F12001134A30
:1008B00002EB0111085D00F091F8601CC4B2082C35
:1008C000F3DB721ED206110E6A1E012303EB4202F5
:1008D000D0B2FFF7CAFF00240BE0A7F12001074ABE
:1008E00002EB011204F10801505C00F077F8601C83
:1008F000C4B2082CF1DBBDE8F08100002C24000814
:100900002DE9F04780460E4617461D46002415E0A7
:10091000281B411E0A20FFF79EFFB7FBF0F00A21BB
:10092000B0FBF1F201FB120000F130093019C1B245
:100930004A464046FFF7AAFF601CC4B2AC42E7DB60
:10094000BDE8F0872DE9F04107460E461546002424
:1009500007E02A5D3019C1B23846FFF797FF601CE7
:10096000C4B2285D0028F4D1BDE8F08110B504467A
:1009700000BF4FF400311648FFF79BFD0028F8D167
:1009800001211348FFF77DFD12491148FFF7F8FEDA
:10099000002278210E48FFF71FFE0F490C48FFF791
:1009A000EFFE00210A48FFF720FE0B49891C08488A
:1009B000FFF7E6FE21460648FFF717FE0649891CA9
:1009C0000348FFF7DDFE01210148FFF766FD10BD7A
:1009D00000540040010003008200070010B50446E7
:1009E00000BF4FF400311648FFF763FD0028F8D12F
:1009F00001211348FFF745FD12491148FFF7C0FEDA
:100A0000002278210E48FFF7E7FD0F490C48FFF759
:100A1000B7FE40210A48FFF7E8FD0B49891C08484A
:100A2000FFF7AEFE21460648FFF7DFFD0649891CA9
:100A30000348FFF7A5FE01210148FFF72EFD10BD79
:100A400000540040010003008200070070B5044616
:100A50000D4600BF4FF400312148FFF72AFD002862
:100A6000F8D101211E48FFF70CFD1E491C48FFF775
:100A700087FE002278211A48FFF7AEFD1A49184870
:100A8000FFF77EFE40211648FFF7AFFD1649891C8F
:100A90001348FFF775FE00211448FFF7E1FB1348E8
:100AA0006C388467056701211048FFF7D9FB0121E5
:100AB0000B48FFF7DAFC00BF4FF40010FFF7DCFB38
:100AC0000028F9D04FF40010FFF7BCFB00210448C8
:100AD000FFF7CBFC01210248FFF7DFFC70BD0000EF
:100AE0000054004001000300820007006C00024037
:100AF000014908627047000000000E4229B1064A11
:100B000052690243044B5A6104E0034A526982432A
:100B1000014B5A61704700000010024029B1064A9B
:100B2000D2690243044BDA6104E0034AD26982438A
:100B3000014BDA61704700000010024029B1064AFB
:100B400092690243044B9A6104E0034A926982432A
:100B5000014B9A6170470000001002400149086093
:100B6000704700004004424230B5002100220024BA
:100B700000232D4D6D6805F00C0121B1042905D02D
:100B8000082923D105E0294D056022E0274D0560A5
:100B90001FE0254D6D6805F47012234D6D6805F456
:100BA0008034022505EB92421CB9214D5543056066
:100BB0000BE01D4D6D6805F400351DB11C4D55430E
:100BC000056002E0194D5543056002E0174D0560D0
:100BD00000BF00BF144D6D6805F0F0010909154D07
:100BE0006B5C0568DD4045600F4D6D6805F4E061A4
:100BF000090A104D6B5C4568DD4085600A4D6D68E3
:100C000005F46051C90A0B4D6B5C4568DD40C56059
:100C1000054D6D6805F44041890B074D6B5CC56857
:100C2000B5FBF3F5056130BD0010024000127A00FB
:100C300000093D00000000201000002010B5014612
:100C40000022002300204A11012A02D1094C236806
:100C500006E0022A02D1074C236A01E0054C636AD0
:100C600001F01F02012494401C400CB1012000E05F
:100C7000002010BD001002400149086070470000CC
:100C80008004424201490860704700003C0442422F
:100C90000249096A0143014A11627047001002408B
:100CA0000348008840F010000149088070470000A8
:100CB00004280040034800884FF6EF7108400149BE
:100CC0000880704704280040002103480188001F65
:100CD000008841EA004070471C2800402DE9F04799
:100CE00005460E4617462B48006818B901F096FADB
:100CF00028490860FFF7E8FF0446274884421ED2CF
:100D00004DB14FF46160B4FBF0F01821B0FBF1F28B
:100D100001FB120028704EB14FF46160B4FBF0F19A
:100D200000FB11403C21B0FBF1F030702FB13C20B2
:100D3000B4FBF0F100FB11403870BDE8F08701F022
:100D40006DFA814613490968A9EB010A4FF47A70DC
:100D5000BAFBF0F855B14FF46160B8FBF0F00C301D
:100D60001821B0FBF1F201FB1200287046B13C20C3
:100D7000B8FBF0F03C21B0FBF1F201FB1200307047
:100D80002FB13C20B8FBF0F100FB1180387000BFA0
:100D9000D3E70000A00000208051010070B50024BE
:100DA000002501214FF0C050FFF7B8FE0120FFF7EA
:100DB0009FFEFFF73DFA0120FFF75EFF00BF00E056
:100DC000641C6120FFF73AFF10B90F488442F7D343
:100DD0006120FFF733FF012815D14002FFF758FFCC
:100DE0000120FFF74FFF00F04FF800F043F849F6FD
:100DF0003F4000F019F800F03DF8002211460C20A9
:100E000000F022F8012570BDA086010000B5024661
:100E1000FFF746FF100C03490880091D0A80FFF701
:100E200049FF00BD1828004000B50246FFF738FF13
:100E3000C2F3034003490880091D0A80FFF73AFF07
:100E400000BD0000082800402DE9F04104460D4691
:100E500016464FF461606043C5EB051100EB81005D
:100E6000871900F007F83846FFF7D0FF00F002F8C6
:100E7000BDE8F08100BF0348008800F02000002892
:100E8000F9D0704704280040074800884FF6F771F2
:100E900008400549088000BF0348008800F00800AA
:100EA0000028F9D0704700000428004010B500F079
:100EB00001F810BD0CB50020019000903348006887
:100EC00040F480303149086000BF3048006800F4C9
:100ED000003000900198401C0190009818B90198CA
:100EE000B0F5A06FF1D12948006800F4003010B1CE
:100EF0000120009001E0002000900098012843D1DB
:100F00002348006840F01000214908600846006846
:100F100020F0030008600846006840F00200086006
:100F20001A484068194948600846406848600846C1
:100F3000406840F4806048600846406820F47C10B7
:100F400048600846406840F4E81048600846006879
:100F500040F08070086000BF0C48006800F000702E
:100F60000028F9D00948406820F00300074948608C
:100F70000846406840F00200486000BF03484068EF
:100F800000F00C000828F9D10CBD00000010024050
:100F90000020024010B501F0F7F810BD10B513485D
:100FA000006840F001001149086008464068104997
:100FB00008400E494860084600680E4908400B4941
:100FC00008600846006820F48020086008464068F1
:100FD00020F4FE0048604FF41F008860FFF766FFB2
:100FE0004FF000600449086010BD0000001002408E
:100FF0000000FFF8FFFFF6FE08ED00E000BFFEE78F
:101000000FB4084B10B504A902AA039800F01CF80D
:10101000044602A9002000F0B8F9204610BC5DF893
:1010200014FB00008B13000802E008C8121F08C15F
:10103000002AFAD170477047002001E001C1121F59
:10104000002AFBD1704700002DE9FF4F8BB0884686
:101050000546002606E025280BD0DDE90D12904755
:101060006D1C761C28780028F5D10FB03046BDE8FD
:10107000F08F0024A146A2460122AE4900E00443BD
:1010800015F8013F203B02FA03F00842F7D1287817
:101090002A2810D06FF02F022878A0F130010929FA
:1010A00015D809EB890102EB410144F0020400EB81
:1010B00001096D1CF0E758F8041B5FEA010903D52C
:1010C00044F40054C9F1000944F002046D1C28786E
:1010D0002E2817D115F8010F44F004042A280ED049
:1010E0006FF02F022878A0F1300109290AD80AEB05
:1010F0008A0102EB410100EB010A6D1CF2E758F88E
:1011000004AB6D1C28786C280FD006DC4C2817D057
:1011100068280DD06A2814D104E0742810D07A28E9
:101120000FD10DE044F400140AE044F4801401E00F
:1011300044F440146978814202D104F580146D1C96
:101140006D1C2878692865D006DC00288DD06328BE
:1011500027D0642806D15DE06E2808D073282AD0F5
:10116000752877D0DDE90D129047761CE0E0C4F3D6
:101170000250022809D003280DD0D8F80010042806
:101180000DD00E6008F10408D2E0D8F80010F21774
:10119000C1E90062F6E7D8F800100E80F2E70E70A1
:1011A000F0E718F8041B8DF8001000208DF80100FE
:1011B000EB46012003E058F804BB4FF0FF30610715
:1011C0004FF0000701D40AE07F1C57450DDA874233
:1011D000FADB1BF807100029F6D106E07F1C8742D6
:1011E000FCDB1BF807100029F8D1DDE90D23A9EB82
:1011F00007008146214600F0B1F83044C61904E0EA
:10120000DDE90D121BF8010B90477F1EF8D2214635
:10121000484688E058F8040BC4F302514FF00A0B1B
:10122000032900D100B2042900D140B2002802DA1B
:1012300040422D2102E0210505D52B218DF82410F7
:10124000012104E006E0E10710D02021F6E708AF15
:10125000089113E058F8040BC4F302514FF00A0B45
:10126000032900D180B2042900D1C0B20021EEE7E9
:101270005946FEF7B5FF303107F8011D0028F7D1B8
:10128000ADEB070000F1200B600702D524F4803499
:1012900001E04FF0010ADA4502DDAAEB0B0000E0A5
:1012A0000020824600EB0B0108980144A9EB0100E5
:1012B0000A90E00306D4DDE90D2321460A9800F0E8
:1012C0004DF806444FF0000908E009A911F809009B
:1012D000DDE90D12904709F10109761C089989454D
:1012E000F3DBE0030CD5DDE90D2321460A9800F07D
:1012F00035F8064404E0DDE90D1230209047761CF5
:10130000BAF10001AAF1010AF5DC05E0DDE90D12F0
:1013100017F8010B9047761CBBF10001ABF1010BF4
:10132000F4DC0A982146DDE90D2300F005F80644B7
:101330006D1C97E6092801002DE9F04104460025BF
:101340001E461746880404D405E039462020B047DD
:101350006D1C641EF9D52846BDE8F0812DE9F041E9
:10136000044600251E469046C80301D5302700E0FC
:101370002027880404D505E041463846B0476D1C57
:10138000641EF9D52846BDE8F0810A68531C0B603D
:10139000107070471CB50648012100238022CDE95A
:1013A000001004A1064800F009FF00F069FE1CBD12
:1013B0007C00002073746172745F7461736B000051
:1013C000851C000810B5FFF7EDF9FFF711F9FFF7DD
:1013D00045F9FFF7DFFF002010BD000086B000F0E8
:1013E0001DFFB549086065E1B448007880B1002070
:1013F000B2490870FFF74FF90A2000F0C1FD012043
:10140000AF490870FFF747F90A2000F0B9FD51E134
:10141000AB48007800287DD000F000FF0546A948C1
:10142000007838B9A84AA949A948FFF757FC012014
:10143000A44908700221A748FEF7DEFF002843D127
:10144000142000F09DFD0221A248FEF7D5FF0028E0
:101450003AD1002425E0601CC4B20A2000F090FDBF
:101460000A2C1EDB9C48007850B999480078401C33
:10147000182190FBF1F201FB1200954908700DE074
:1014800095480078012809D190480078401C3C21FB
:1014900090FBF1F201FB12008C490870C82000F0AB
:1014A0006FFD02218B48FEF7A7FF0028D3D00A2C3E
:1014B00009DA89480078012802D18849087002E0D9
:1014C00001208549087000BF8448007888B1002257
:1014D0007E4801787E480078FFF7B6FC00207F49FF
:1014E000087077490870FFF7D6F80A2000F048FD29
:1014F000E0E005AA00210846FFF7F0FBFFF7CBF874
:1015000077A201210846FFF71DFA78480078B0B1AC
:10151000714800E04FE0007840B99DF814306B4806
:10152000027873A102A8FFF76BFD13E09DF8143059
:101530006748027872A102A8FFF762FD0AE09DF8F1
:1015400014000090614803786148027870A102A8F5
:10155000FFF756FD02AA01210220FFF7F3F970A25E
:1015600001210320FFF7EEF970A201210420FFF70B
:10157000E9F95948007828B96FA20A210420FFF739
:10158000E1F904E06EA20A210420FFF7DBF96D48BF
:101590000068281AB0F5FA7F09D35448007808B9D2
:1015A000012000E0002051490870664805600120D4
:1015B00000F0E6FC7AE064480068401C624908607C
:1015C00000F02CFE04463C480068201AB0F57A7FF3
:1015D00011D339480068201A4FF47A71B0FBF1F04A
:1015E00059490968B1FBF0F0584908800020564974
:1015F00008603148046056A201210846FFF7A2F9AD
:1016000003235548027806210120FFF779F953A2F8
:1016100001210220FFF796F902215248FEF7F5FE5C
:1016200028B951A206210220FFF78CF904E050A24C
:1016300006210220FFF786F94EA201210320FFF7C1
:1016400081F904214748FEF7E0FE28B946A20621A9
:101650000320FFF777F904E045A206210320FFF7F6
:1016600071F903AA04A905A8FFF738FB9DF80C003F
:101670004249097888420ED09DF80C0000909DF8F0
:1016800010309DF8142022A13D48FFF7B9FC9DF8C9
:101690000C003A4908703BA201210420FFF752F9DF
:1016A000374A06210420FFF74DF900BF012000F062
:1016B00067FC00BF98E60000740000209000002046
:1016C000910000209D000020950000209400002043
:1016D00093000020000C01409200002096000020A2
:1016E00054696D652041646A757374009C00002024
:1016F00020203A253032643A253032640000000060
:10170000253032643A20203A25303264000000004F
:10171000253032643A253032643A25303264000094
:10172000436C69636B3A4E6578740000486F6C6473
:101730003A41646A75737400486F75720000000066
:101740004D696E0098000020700000207800002095
:101750004E756D3A000000006D0000204C4544318C
:101760003A000000000801404F4E20200000000019
:101770004F4646004C4544323A0000009E0000208F
:101780006C29002054696D653A0000002DE9F04194
:1017900005460E461C4807681C480068001D00F0FE
:1017A00055FB50B91948006890F82C10012088406A
:1017B00017490968814316480160681C38B936B179
:1017C00012480168091D134800F07EFB1AE07C19DD
:1017D0000E4800684460BC4207D20C480168091DED
:1017E0000D48006800F056FB0CE008480168091D30
:1017F0000A48006800F04EFB09480068844201D2A4
:1018000007480460BDE8F081280000201400002093
:101810002C000020580100201C000020180000208F
:101820004400002010B5044600F05AFB234800682D
:10183000401C224908602248006840B920480460E2
:101840000846006801280DD100F014F90AE01D488F
:10185000006838B91A480068C06AE16A884201D84D
:101860001748046018480068401C1749086094F83D
:101870002C10012088401549096808431349086065
:10188000E16A01EB8101124A02EB8100211D00F0A7
:101890001BFB00F037FB0B48006868B10848006884
:1018A000C06AE16A884207D24FF080500949086057
:1018B000BFF34F8FBFF36F8F10BD000024000020D7
:1018C0001400002030000020400000202C000020E8
:1018D000A400002004ED00E070B523E000F002FC5D
:1018E0001348006808B9012000E00020054600F018
:1018F00029FDBDB900F0F4FA0D48C068C468201D88
:1019000000F0A4FA0B480068401E0A4908600A4823
:101910000068401E0849086000F0F4FA204600F014
:101920000DF800BF044800680028D7D170BD000042
:1019300044010020240000202000002010B50446AF
:10194000206B00F0EFFA204600F0ECFA10BD00002A
:1019500030B54FF42053174800F007042CB1C01DD8
:1019600020F00700134C041B1B1B0246124C226084
:101970000024114D6C60D018083820F007000F4C7F
:10198000206000240D4D2D686C600C4D2D682C607E
:101990001146441A4C60094C24680C60084D4C6890
:1019A0002C60084D4C682C604FF00044064D2C60B4
:1019B00030BD00006C0100205000002058000020C5
:1019C000600000205C0000206400002000BFFFF7E2
:1019D00083FF064800680128F9D94FF08050044978
:1019E0000860BFF34F8FBFF36F8FF0E7A4000020B4
:1019F00004ED00E02DE9FF5F80460E469146DDE9EB
:101A00000E7A109CA9F10100216B01EB800B2BF0E9
:101A1000070B002507E0715D04F134004155705D4E
:101A200000B902E06D1C102DF5D300BF002143204A
:101A30000155052F00D30427E762201D00F027FA87
:101A400004F1180000F023FA2461C7F10500A06139
:101A500064620020606484F8480041465846039A56
:101A600000F0FEF82060BAF1000F01D0CAF8004083
:101A7000BDE8FF9F10B5002407E004EB84010F4A86
:101A800002EB810000F0F6F9641C052CF5D30C483C
:101A900000F0F0F90B4800F0EDF90B4800F0EAF91E
:101AA0000A4800F0E7F90A4800F0E4F90448094957
:101AB000086004480849086010BD0000A400002028
:101AC000080100201C0100203001002044010020FA
:101AD00058010020180000201C00002010B501460D
:101AE000164800E0006803688B42FBD30246436857
:101AF00013448B4204D143684C682344436001463D
:101B00000A464B6813440468A34211D10C4C036885
:101B10002468A34208D04B680468646823444B607F
:101B200003681B680B6005E0054B1B680B6001E058
:101B300003680B60884200D0016010BD5000002097
:101B4000580000200A490968096809B9012100E024
:101B5000002121B14FF0FF31064A116006E004492F
:101B60000968C968C868034A416811607047000085
:101B7000180000204400002000BFBF2080F311881F
:101B8000BFF34F8FBFF36F8F00BF00BFFEE70000B2
:101B90002DE9F04105464FF0000800F0A3FA2B486C
:101BA000006808B9FFF7D4FE2948006828400028DB
:101BB00047D145B1083505F0070020B105F0070011
:101BC000C0F108000544002D3BD022480068854242
:101BD00037D8214E3046046801E026462468606804
:101BE000A84202D220680028F7D118480068844231
:101BF00027D0306800F10808206830606068401B1A
:101C0000102807D967196068401B786065603846FE
:101C1000FFF764FF0F4960680968081A0D490860FA
:101C2000084600680D490968884203D209480068DF
:101C30000A49086006496068096808436060002036
:101C4000206000F07FFB4046BDE8F0815800002096
:101C5000640000205C000020500000206000002094
:101C6000001F4FF080730360001F21F00103036029
:101C7000001F034B036014380260203870470000D7
:101C8000791B00081CB5044600F02AF9FEF78AFD0E
:101C9000FEF701FDFFF782F81748022100233222E8
:101CA000CDE9001015A1174800F088FA1648032165
:101CB00000233222CDE9001014A1164800F07EFA6C
:101CC0001548042100233222CDE9001013A1154844
:101CD00000F074FA144805210023C822CDE9001051
:101CE00012A1154800F06AFA1448006800F062F981
:101CF00000F008F91CBD0000800000207461736BC7
:101D000031000000411D0008840000207461736BE5
:101D1000320000005D1D0008880000207461736BB4
:101D200033000000791D00088C0000206F6C656492
:101D30005F7461736B000000DD1300087C000020FD
:101D40000BE0FEF773FC4FF4FA7000F019F9FEF7A0
:101D500065FC4FF4FA7000F013F9F2E70BE0FEF7C0
:101D600075FC4FF4FA7000F00BF9FEF767FC4FF4C6
:101D7000FA7000F005F9F2E71CB5002500270126EE
:101D800000BF00BF53E002212948FEF735FB04469F
:101D9000B44230D0142000F0F3F802212448FEF7BA
:101DA0002BFB0446B44226D0264614B90025012751
:101DB00021E0FFB1322D1DDA1E480078401C1D497C
:101DC00008701D48006848B1FEF728FC1A480068F2
:101DD00000F0F0F80020184908600BE0FEF71EFC48
:101DE0001548022100233222CDE9001013A1154825
:101DF00000F0E4F90027B4B9681CC5B2322D12DB3B
:101E000000270120104908700A2000F0B9F80025C9
:101E100002E00A2000F0B4F802210548FEF7ECFACF
:101E20000028F6D001260A2000F0AAF800BFAAE791
:101E3000000C01406D000020800000207461736B75
:101E400031000000411D00089000002001460A6991
:101E5000D1E901309860D1E90103586050688842A7
:101E600001D188685060002008611068401E106031
:101E70001068704700F1080141604FF0FF31816048
:101E800000F10801C160016100210160704700217B
:101E90000161704710B502460B685C1C0CB91069F3
:101EA00007E002F1080000E04068446824689C42B2
:101EB000FAD944684C604C68A160886041600A614E
:101EC0001468641C146010BD42684A6093688B609B
:101ED000936859609160086103685B1C03607047F8
:101EE00000BFBF2080F31188BFF34F8FBFF36F8F08
:101EF00000BF03480068401C0149086070470000AB
:101F00006800002006480068401E05490860084631
:101F1000006820B9002080F3118800BF00BF70471F
:101F20006800002070B506463546D6B1083D2C46FF
:101F30000C4960680968084098B1206888B9094967
:101F4000606809688843606000F0CCF80649606802
:101F500009680844044908602046FFF7BFFD00F007
:101F6000F1F970BD640000205C00002003484FF0D0
:101F7000E021486107200861704700003F19010017
:101F800070B50446002544B100F0ACF800212046AD
:101F9000FFF7FCFB00F0D6F905463DB94FF0805045
:101FA00003490860BFF34F8FBFF36F8F70BD000010
:101FB00004ED00E070B50546FFF792FF15B927481C
:101FC000006800E028460446201DFFF73FFF78B96F
:101FD000E06A00EB8000224951F8200040B994F8F3
:101FE0002C10012088401F49096881431D48016069
:101FF000A06A18B104F11800FFF728FF1A4800681A
:10200000401C1949086015480068844209D1211D07
:102010001648FFF759FF16480068401C144908602D
:1020200009E014480068401E124908602046FFF786
:1020300085FCFFF787FDFFF765FF0F48006858B183
:1020400006480068844207D14FF080500B49086071
:10205000BFF34F8FBFF36F8F70BD000014000020DF
:10206000A40000202C00002040000020440100209B
:1020700020000020240000203000002004ED00E0BB
:102080001CB5114800210B468022CDE900100FA19C
:10209000104800F093F80446012C14D100BFBF2073
:1020A00080F31188BFF34F8FBFF36F8F00BF4FF0E6
:1020B000FF300949086001200849086000200849EC
:1020C000086000F047F81CBD4800002049444C451A
:1020D00000000000CD19000844000020300000205E
:1020E0002800002002480068401C01490860704731
:1020F0004C0000201248006818B101201149086006
:102100001DE000200F4908600F480068B0FA80F019
:10211000C0F11F0101EB81020C4B03EB820042680E
:102120005268426000F108024368934202D142685B
:10213000526842604268D268054B1A6000BF70471F
:102140004C000020380000202C000020A4000020BB
:102150001400002010B50A48006840F47F000849C8
:1021600008600846006840F07F400860FFF7FEFE08
:10217000002004490860FDF7D5FF002010BD0000D5
:1021800020ED00E06800002010B500BFBF2080F304
:102190001188BFF34F8FBFF36F8F00BF00F044F87B
:1021A00018B14FF080500449086000BF002080F350
:1021B000118800BF10BD000004ED00E02DE9FF4FC5
:1021C00085B0804689461746DDE912ABB800FFF7B7
:1021D000DFFC064656B14C20FFF7DAFC04460CB192
:1021E000266304E03046FFF79DFE00E000247CB14A
:1021F0000020CDE900ABCDE902403A4649464046D1
:10220000089BFFF7F7FB2046FFF70CFB012501E0D9
:102210004FF0FF35284609B0BDE8F08F0149086846
:1022200070470000280000202DE9F04100273A48BF
:102230000068002863D139480068451C37480560AC
:102240008DB93748D0F800803648006834490860B6
:102250003448C0F8008034480068401C32490860A7
:10226000FFF770FC00BF3148006885423BD300BFD8
:102270002B480068006808B9012000E0002020B168
:102280004FF0FF30294908602CE025480068C068FD
:10229000C4686668B54202D22448066022E0201D68
:1022A000FFF7D4FDA06A18B104F11800FFF7CEFDC6
:1022B00094F82C10012088401D49096808431C49E6
:1022C0000860E16A01EB81011A4A02EB8100211DDD
:1022D000FFF7FAFD1849E06A0968C96A8842C7D35E
:1022E0000127C5E700BF14480068C06A00EB800002
:1022F000104951F82000012800D9012704E00F48B7
:102300000068401C0D4908600D48006800B10127B5
:102310003846BDE8F08100004C0000202800002075
:10232000180000201C0000203C0000204400002079
:102330002C000020A4000020140000203400002005
:102340003800002070B500240026FFF7C9FD2E4894
:102350000068401E2C4908600846006800284FD1DC
:102360002A48006800284BD024E02948C068C46887
:1023700004F11800FFF76AFD201DFFF767FD94F8D0
:102380002C1001208840234909680843214908602E
:10239000E16A01EB8101204A02EB8100211DFFF778
:1023A00093FD1E49E06A0968C96A884202D3012088
:1023B0001B4908601648006808B9012000E00020A9
:1023C0000028D2D00CB1FFF7BDFB1648056865B1F7
:1023D00000BFFFF729FF10B10120114908606D1EF1
:1023E000002DF6D100200F4908600D48006838B173
:1023F000012630070C490860BFF34F8FBFF36F8F82
:10240000FFF780FD304670BD4C0000202400002006
:10241000300100202C000020A40000201400002027
:10242000380000203400002004ED00E0000000002F
:10243000000000000000000000000000000000F8A4
:1024400000000000000000333000000000100C0607
:10245000100C0600000000000000000040C07840A2
:10246000C0784000043F04043F040400007088FC6E
:1024700008300000001820FF211E0000F008F000C6
:10248000E018000000211C031E211E0000F0088837
:10249000700000001E2123241927211010160E00A1
:1024A000000000000000000000000000000000E04C
:1024B0001804020000000007182040000002041861
:1024C000E00000000040201807000000404080F0BD
:1024D000804040000202010F01020200000000F0F3
:1024E000000000000101011F0101010000000000C7
:1024F0000000000080B0700000000000000000003C
:1025000000000000000101010101010100000000C4
:10251000000000000030300000000000000000005B
:1025200080601804006018060100000000E0100838
:102530000810E000000F102020100F00001010F80D
:10254000000000000020203F20200000007008084C
:1025500008887000003028242221300000300888CC
:10256000884830000018202020110E000000C020F4
:1025700010F8000000070424243F240000F8088815
:10258000880808000019212020110E0000E01088A2
:1025900088180000000F112020110E0000380808D4
:1025A000C83808000000003F0000000000708808E4
:1025B00008887000001C222121221C0000E0100865
:1025C0000810E0000000312222110F00000000C0BE
:1025D000C00000000000003030000000000000805B
:1025E000000000000000806000000000000080404B
:1025F0002010080000010204081020004040404064
:1026000040404000040404040404040000081020B6
:1026100040800000002010080402010000704808FB
:102620000808F0000000003036010000C030C82863
:10263000E810E0000718272423140B000000C0381E
:10264000E0000000203C23020227382008F8888898
:1026500088700000203F202020110E00C0300808A4
:1026600008083800071820202010080008F808087B
:102670000810E000203F202020100F0008F8888874
:10268000E8081000203F20202320180008F8888840
:10269000E8081000203F200003000000C0300808B8
:1026A0000838000007182020221E020008F8080041
:1026B0000008F808203F210101213F20000808F808
:1026C000080800000020203F20200000000008082B
:1026D000F8080800C08080807F00000008F888C0EB
:1026E00028180800203F20012638200008F808009C
:1026F00000000000203F20202020300008F8F800D3
:10270000F8F80800203F003F003F200008F830C0E4
:102710000008F808203F200007183F00E0100808D4
:102720000810E0000F10202020100F0008F8080803
:102730000808F000203F210101010000E010080816
:102740000810E0000F18242438504F0008F888883B
:1027500088887000203F2000030C3020007088081B
:10276000080838000038202121221C00180808F829
:10277000080818000000203F2000000008F80800AA
:102780000008F808001F202020201F00087888007B
:1027900000C83808000007380E010000F80800F8EB
:1027A0000008F800033C0700073C03000818688095
:1027B0008068180820302C03032C30200838C8000B
:1027C000C83808000000203F20000000100808085A
:1027D000C83808002038262120201800000000FEFC
:1027E000020202000000007F40404000000C30C0A8
:1027F00000000000000000010638C00000020202D4
:10280000FE000000004040407F0000000000040285
:1028100002020400000000000000000000000000B0
:1028200000000000808080808080808000020204A0
:102830000000000000000000000000000000808098
:10284000808000000019242222223F2008F8008006
:1028500080000000003F112020110E0000000080C9
:1028600080800000000E1120202011000000008058
:102870008088F800000E112020103F20000080808A
:1028800080800000001F222222221300008080F09E
:10289000888888180020203F2020000000008080C9
:1028A00080808000006B94949493600008F800800E
:1028B00080800000203F210000203F200080989869
:1028C000000000000020203F2020000000000080C9
:1028D0009898000000C08080807F000008F8000009
:1028E00080808000203F24022D302000000808F85E
:1028F000000000000020203F202000008080808019
:1029000080808000203F20003F20003F80800080AA
:1029100080800000203F210000203F2000008080B8
:1029200080800000001F202020201F008080008069
:102930008000000080FFA12020110E000000008018
:1029400080808000000E112020A0FF808080800009
:102950008080800020203F21200001000000808036
:10296000808080000033242424241900008080E02B
:10297000808000000000001F2020000080800000F8
:1029800000808000001F202020103F2080808000D9
:102990000080808000010E300806010080800080E9
:1029A000008080800F300C030C300F00008080000E
:1029B000808080000020312E0E3120008080800039
:1029C0000080808080818E701806010000808080E9
:1029D000808080000021302C222130000000000087
:1029E000807C020200000000003F40400000000028
:1029F000FF00000000000000FF0000000002027C59
:102A0000800000000040403F00000000000601017F
:102A100002020404000000000000000000000204A4
:102A2000091224489020408000000000000020107F
:102A3000482412090402010000000000221408F4D6
:102A40000200FC04FC0402FE030200004482413F39
:102A500080601F007F2810610E3040000000008061
:102A600040301F1010101090700000000082818014
:102A70004041221408040201000000004020F02818
:102A8000272424E424342C20E00000008080472206
:102A9000120A06037E828AB28780E000044444441E
:102AA000C42F2404048F0404E404040022120A0640
:102AB000FF060A12001F40807F00000000428202D1
:102AC00002FE020202FE020202C200004040414633
:102AD000407F4040407F40444340400010EC27E4AA
:102AE00034EC0004E4252624E404040040CF492FFC
:102AF000292F20104B827E020B102000104C4444E2
:102B0000444445C64444444444540C004040444476
:102B10004444447F4444546444404000080602F264
:102B200052525252525252F2020A06000808884B80
:102B300029090B0D0909294B88080800000000BE6F
:102B40002A2A2AEA2A2A2A3E000000000044424992
:102B50004949497F49494949414000001060028C78
:102B6000008040304F8808088878000004047E0107
:102B70000080804020100906010000000000007F56
:102B8000494949494949497F000000008141211DC7
:102B9000214181FF898989898981810000444424F8
:102BA000FF140024A47F8404FC00C0004040494A74
:102BB0004948487E494848484841430000F80C0BC2
:102BC0000808F840308F080808F80000007F21212D
:102BD00021217F0000004380403F000000000000F2
:102BE00080402090482412090402000000000000E8
:102BF000000102040912244810200000202024248F
:102C00002424BF6424342824222020001008040235
:102C1000FF494949494949FF0000000000482A1A74
:102C20007E19A940A4130A26423E00000404422251
:102C30001549807E000915224204040082BAAAAA1E
:102C4000BA82BE8220180FC808281800001E12126F
:102C50005E807F0080601C031C608000008080809C
:102C60008080808080808080808000000000000064
:102C7000000000000000000000000000000808380C
:102C8000F8C000000000806018080000000000008C
:102C900000030F3C180601000000000000000000C7
:102CA00000000000000000000000000000003636B8
:102CB00000000000000000000000000004E42526E1
:102CC00024E4042020FF20E22C202000104B827EF0
:102CD000020B90601C03003F40407000202424241D
:102CE000FE23222020FF20222CA020000008488460
:102CF0007F02414020130C142241F800000202021E
:102D0000020202E222120A06020000000000000095
:102D10000040807F000000000000000000FC040470
:102D200004FC040404FC040404FC0000007F2824C8
:102D30002320202020212222227F0000404042CC5C
:102D40000000FCA4A5A6A4A4A4BC00000080403FF1
:102D5000488681BF849F848FA4BF8000000000004C
:102D600000000000000000000000000000005838D3
:102D700000000000000000000000000080804020F3
:102D8000100824C3040810204080800000000002C6
:102D90000202028242221A060000000000FC848423
:102DA000FC10E82427E424342CE00000003F10103D
:102DB0003F8043320E033E424243700020504C435A
:102DC00044481000FC061544847C0000007E22224A
:102DD000227E00101312125292423E0080828282A2
:102DE000828282E2A2928A868280800000000000B5
:102DF0000040807F00000000000000001060028C96
:102E0000000042E2524AC64240C0000004047E0173
:102E100020108C4320184780403F00003C2E0008C3
:102E200000000020A400000028100008E02E000888
:102E3000A4000020D42C000038100008000000007E
:102E4000010203040102030406070809020406083C
:102E50000000000000000000000000000000000072
:102E60000000000000000000000000000000000062
:102E70000000000000000000000000000000000052
:102E80000000000000000000000000000000000042
:102E90000000000000000000000000000000000032
:102EA00000000000AAAAAAAA00000000000000007A
:102EB0000000000000000000000000000000000012
:102EC0000000000000000000000000000000000002
:102ED00000000000000000000000FF0000000000F3
:04000005080000ED02
:00000001FF
