:020000040800F2
:10000000602D00209901000859060008E903000846
:100010005506000805020008390D00080000000020
:1000200000000000000000000000000001010008C6
:10003000A50200080000000045010008D10C0008DE
:10004000B3010008B3010008B3010008B3010008C0
:10005000B3010008B3010008B3010008B3010008B0
:10006000B3010008B3010008B3010008B3010008A0
:10007000B3010008B3010008B3010008B301000890
:10008000B3010008B3010008B3010008B301000880
:10009000B3010008B3010008B3010008B301000870
:1000A000B3010008B3010008B3010008B301000860
:1000B000B3010008B3010008B3010008B301000850
:1000C000B3010008B3010008B3010008B301000840
:1000D000B3010008B3010008B3010008B301000830
:1000E000B3010008B3010008B3010008DFF80CD029
:1000F00000F076F8004800478D0D0008602D0020C4
:10010000224B19680868B0E8F00F80F30988BFF344
:100110006F8F4FF0000080F311884EF00D0E704786
:100120000000000006480068006880F3088862B696
:1001300061B6BFF34F8FBFF36F8F00DF00BF00BF0B
:1001400008ED00E0EFF30980BFF36F8F0F4B1A68E3
:1001500020E9F00F106008B54FF0BF0080F3118860
:10016000BFF34F8FBFF36F8F01F0FCFB4FF0000028
:1001700080F31188BDE8084019680868B0E8F00FFE
:1001800080F30988BFF36F8F704700BF1400002011
:10019000EFF3058070470000064880470648004797
:1001A000FEE7FEE7FEE7FEE7FEE7FEE7FEE7FEE727
:1001B000FEE7FEE7D90C0008ED000008D2B201E02E
:1001C00000F8012B491EFBD270470022F6E710B55C
:1001D00013460A4604461946FFF7F0FF204610BDB5
:1001E000064C074D06E0E06840F0010394E8070084
:1001F00098471034AC42F6D3FFF77CFF8C260008FA
:10020000AC26000800BFFEE700F0805111B10349A1
:10021000086001E0024948607047000004040240A1
:100220000000024021B1026842F00102026004E0D5
:1002300002684FF6FE731A400260704701460020C4
:10024000002201F0805313B1054B1A6801E0054B01
:100250001A6802EA01030BB1012000E00020704798
:10026000000402400000024010B50022026847F678
:10027000F0739A430C6A8B6823430C6923434C69DF
:1002800023438C692343CC6923434C6A23438C6A00
:1002900023431A430260CB6843600B6883604B685A
:1002A000C36010BD70472DE9F041024600250026CD
:1002B000002000230024002791F803C00CF00F0554
:1002C00091F803C00CF0100CBCF1000F03D091F8B2
:1002D00002C04CEA050591F800C0BCF1000F31D016
:1002E000146800202BE04FF0010C0CFA00F3B1F879
:1002F00000C00CEA03069E4220D183004FF00F0C91
:100300000CFA03F7BC4305FA03FC4CEA040491F829
:1003100003C0BCF1280F06D14FF0010C0CFA00FC11
:10032000C2F814C00AE091F803C0BCF1480F05D12F
:100330004FF0010C0CFA00FCC2F810C0401C082859
:10034000D1D31460B1F800C0BCF1FF0F34DD5468A4
:1003500000202EE000F1080C4FF0010808FA0CF321
:10036000B1F800C00CEA03069E4221D183004FF091
:100370000F0C0CFA03F7BC4305FA03FC4CEA040427
:1003800091F803C0BCF1280F05D100F1080C08FA60
:100390000CF8C2F8148091F803C0BCF1480F07D1E3
:1003A00000F1080C4FF0010808FA0CF8C2F81080B0
:1003B000401C0828CED35460BDE8F08102460020DE
:1003C00093680B400BB1012000E00020704702460B
:1003D0000020D3680B400BB1012000E000207047E3
:1003E000416170470161704700BFFEE770B502468A
:1003F0000024002500230020958A138B1B0445EA66
:10040000030626F07F4404EA01068E4201D1012052
:1004100000E0002070BD21B1028842F0010202809C
:1004200004E002884FF6FE731A400280704721B143
:10043000828842F40062828004E082884FF2FF7377
:100440001A408280704721B1028842F48072028093
:1004500004E002884FF6FF631A400280704721B122
:10046000028842F40072028004E002884FF6FF53D3
:100470001A40028070470CB5024600200023019309
:10048000009300920B0F019321F07F41019B1BB160
:10049000009B1433009303E0090C009B1833009376
:1004A000009B1B680B400BB1012000E000200CBD3D
:1004B0002DE9F04385B004460D460026B1460427D9
:1004C000DFF8CC80A6884FF6C0700640684600F082
:1004D00021FBDDF808802F48B8FBF0F01FFA80F907
:1004E00046EA0906A68020884FF6FE710840208063
:1004F00000262949286888420CD828684000B8FBA3
:10050000F0F087B2042F00DA04273E4309F101001E
:10051000208427E0E8884BF6FF71884206D12868DE
:1005200000EB4000B8FBF0F087B209E0286800EB70
:10053000C00101EB0010B8FBF0F087B247F4804730
:10054000C7F30B0008B947F0010747F40040064322
:100550004FF4967009FB00F04FF47A7190FBF1F0C4
:10056000401C2084A683208840F00100208026883B
:100570004FF6F5300640A88869890843064326806F
:10058000A88929890843208105B0BDE8F0830000CF
:1005900000127A0040420F00A086010012B141F023
:1005A000010102E04FF6FE7319400182704701829B
:1005B0007047000008B50121082000F09BFA482090
:1005C0008DF8030040F60200ADF8000003208DF81E
:1005D000020069460148FFF766FE08BD000C0140B5
:1005E00010B502210148FFF7FDFE10BD00080140D3
:1005F00010B502210148FFF7F3FE10BD00080140CD
:1006000010B504210148FFF7EDFE10BD00080140C0
:1006100010B504210148FFF7E3FE10BD00080140BA
:1006200008B50121042000F065FA10208DF80300C0
:100630000620ADF8000003208DF80200694604484A
:10064000FFF731FE06210248FFF7CCFE08BD00008F
:100650000008014000BFFEE7704710B5A0B0802140
:100660006846FFF7B2FD002409E00021204600F0B3
:10067000DEF88021684600F0CBF9601CC4B2082C7B
:10068000F3DB20B010BD000000B58BB0012108469F
:1006900000F010FA0C480090002001901020029009
:1006A0000020039004908020059000200690079081
:1006B00008904FF40050099000200A9069460348C2
:1006C000FFF7D2FD0BB000BD105400406C0002409B
:1006D00000B585B00121082000F00CFA0121480581
:1006E00000F0F8F91C208DF8130003208DF812009B
:1006F000C020ADF8100004A90F48FFF7D4FD00207A
:10070000ADF804004BF6FF70ADF806000020ADF820
:100710000800ADF80A004FF48040ADF80C0007481F
:10072000009069460648FFF7C3FE01210448FFF721
:1007300072FE05B000BD0000000C0140801A0600EA
:100740000054004070B504460D4642F2107603E0B6
:10075000701E061E00D170BD29462046FFF746FEDA
:100760000028F5D00120F6E770B5002406E000254A
:1007700000E06D1CB5F57A7FFBD3641CB4F57A7F7D
:10078000F5D3FFF7A5FFFFF77FFFAE2000F0D0F80D
:10079000D52000F0CDF8802000F0CAF8A82000F0A5
:1007A000C7F83F2000F0C4F8D32000F0C1F80020C3
:1007B00000F0BEF8402000F0BBF8A12000F0B8F82F
:1007C000C82000F0B5F8DA2000F0B2F8122000F0EE
:1007D000AFF8812000F0ACF8CF2000F0A9F8D920C4
:1007E00000F0A6F8F12000F0A3F8DB2000F0A0F85C
:1007F000302000F09DF8A42000F09AF8A62000F028
:1008000097F88D2000F094F8142000F091F8AF20B4
:1008100000F08EF8FFF721FF70BD10B502460120F1
:1008200000E050430B1EA1F10101FAD110BD70B5DB
:1008300005460C4645F0B00000F07AF8102141EA78
:10084000141000F075F804F00F0000F071F870BD9E
:100850002DE9F04105460E461746721ED206110ECE
:100860006A1E5206100EFFF7E2FF002409E0A7F10E
:100870002001134A02EB0111085D00F091F8601CA1
:10088000C4B2082CF3DB721ED206110E6A1E0123BD
:1008900003EB4202D0B2FFF7CAFF00240BE0A7F13E
:1008A0002001074A02EB011204F10801505C00F03C
:1008B00077F8601CC4B2082CF1DBBDE8F0810000C1
:1008C0009C1C00082DE9F04780460E4617461D4641
:1008D000002415E0281B411E0A20FFF79EFFB7FBEE
:1008E000F0F00A21B0FBF1F201FB120000F1300937
:1008F0003019C1B24A464046FFF7AAFF601CC4B295
:10090000AC42E7DBBDE8F0872DE9F04107460E4633
:100910001546002407E02A5D3019C1B23846FFF7BA
:1009200097FF601CC4B2285D0028F4D1BDE8F081B7
:1009300010B5044600BF4FF400311648FFF79BFD89
:100940000028F8D101211348FFF77DFD1249114815
:10095000FFF7F8FE002278210E48FFF71FFE0F492F
:100960000C48FFF7EFFE00210A48FFF720FE0B4975
:10097000891C0848FFF7E6FE21460648FFF717FEE8
:100980000649891C0348FFF7DDFE01210148FFF7F6
:1009900066FD10BD00540040010003008200070006
:1009A00010B5044600BF4FF400311648FFF763FD51
:1009B0000028F8D101211348FFF745FD12491148DD
:1009C000FFF7C0FE002278210E48FFF7E7FD0F4930
:1009D0000C48FFF7B7FE40210A48FFF7E8FD0B4936
:1009E000891C0848FFF7AEFE21460648FFF7DFFDE9
:1009F0000649891C0348FFF7A5FE01210148FFF7BE
:100A00002EFD10BD005400400100030082000700CD
:100A100070B504460D4600BF4FF400312148FFF782
:100A20002AFD0028F8D101211E48FFF70CFD1E49C0
:100A30001C48FFF787FE002278211A48FFF7AEFD19
:100A40001A491848FFF77EFE40211648FFF7AFFD10
:100A50001649891C1348FFF775FE00211448FFF75B
:100A6000E1FB13486C388467056701211048FFF7E4
:100A7000D9FB01210B48FFF7DAFC00BF4FF400104F
:100A8000FFF7DCFB0028F9D04FF40010FFF7BCFBA8
:100A900000210448FFF7CBFC01210248FFF7DFFCEF
:100AA00070BD0000005400400100030082000700F8
:100AB0006C00024029B1064A52690243044B5A6154
:100AC00004E0034A52698243014B5A6170470000B7
:100AD0000010024029B1064AD2690243044BDA6190
:100AE00004E0034AD2698243014BDA617047000097
:100AF0000010024029B1064A92690243044B9A61F0
:100B000004E0034A92698243014B9A6170470000F6
:100B10000010024030B500210022002400232D4D9A
:100B20006D6805F00C0121B1042905D0082923D1F5
:100B300005E0294D056022E0274D05601FE0254DA9
:100B40006D6805F47012234D6D6805F4803402253C
:100B500005EB92421CB9214D554305600BE01D4D3C
:100B60006D6805F400351DB11C4D5543056002E06C
:100B7000194D5543056002E0174D056000BF00BFE9
:100B8000144D6D6805F0F0010909154D6B5C0568A1
:100B9000DD4045600F4D6D6805F4E061090A104DB8
:100BA0006B5C4568DD4085600A4D6D6805F46051F9
:100BB000C90A0B4D6B5C4568DD40C560054D6D682D
:100BC00005F44041890B074D6B5CC568B5FBF3F537
:100BD000056130BD0010024000127A0000093D009E
:100BE000000000201000002010B500F001F810BD3A
:100BF0000CB50020019000903348006840F480302C
:100C00003149086000BF3048006800F400300090AF
:100C10000198401C0190009818B90198B0F5A06F98
:100C2000F1D12948006800F4003010B10120009093
:100C300001E0002000900098012843D1234800687B
:100C400040F01000214908600846006820F00300C9
:100C500008600846006840F0020008601A484068D2
:100C6000194948600846406848600846406840F4B2
:100C7000806048600846406820F47C104860084660
:100C8000406840F4E81048600846006840F0807012
:100C9000086000BF0C48006800F000700028F9D020
:100CA0000948406820F0030007494860084640684A
:100CB00040F00200486000BF0348406800F00C00AC
:100CC0000828F9D10CBD00000010024000200240AD
:100CD00010B500F091FE10BD10B51348006840F04B
:100CE00001001149086008464068104908400E4953
:100CF0004860084600680E4908400B4908600846ED
:100D0000006820F4802008600846406820F4FE0057
:100D100048604FF41F008860FFF766FF4FF00060E7
:100D20000449086010BD0000001002400000FFF8F8
:100D3000FFFFF6FE08ED00E000BFFEE702E008C896
:100D4000121F08C1002AFAD170477047002001E045
:100D500001C1121F002AFBD1704700001CB50648D4
:100D6000012100238022CDE9001004A1064800F0F3
:100D70005DFE00F0BDFD1CBD7C000020737461723F
:100D8000745F7461736B0000F914000810B5FFF70D
:100D9000EBFCFFF70FFCFFF743FCFFF7DFFF002042
:100DA00010BD000000F072FE7D49086000F06EFE8C
:100DB00007464FF000080024A1464FF0010AEDE07D
:100DC0007848007848B3002076490870FFF745FC62
:100DD0000A2000F00DFD7448007808B9012000E0F9
:100DE0000020714908700846007838B100F04EFEC6
:100DF00007464FF000080024A14608E000F046FE38
:100E00006749086000206949086069490880FFF760
:100E100024FC0A2000F0ECFCC0E0634800780028C5
:100E200055D008F1010800F031FE0546E81BB0F589
:100E30007A7F0AD3E81B4FF47A71B0FBF1F0B8FB6C
:100E4000F0F084B24FF000082F465A480088A042C4
:100E500014D058480480FFF700FC57A2012108462F
:100E6000FFF752FD58A201210220FFF74DFD032399
:100E7000224606210220FFF725FD06E04946042010
:100E8000FFF7D5FC0020FFF78BFD51480088401C80
:100E90004F490880084600880A2810DB0020088097
:100EA00009EB0A00C6B26E2E00DB00263146042094
:100EB000FFF7BDFCFF20FFF773FDB14606E0494692
:100EC0000420FFF7B4FCFF20FFF76AFD62E037481B
:100ED0000068401C3549086000F0D8FD05463048E0
:100EE0000068281AB0F57A7F11D32D480068281AB7
:100EF0004FF47A71B0FBF1F02C490968B1FBF0F0C6
:100F00002B4908800020294908602548056031A246
:100F100001210846FFF7F8FC032330480278062138
:100F20000120FFF7CFFC2EA201210220FFF7ECFCED
:100F300002212D48FFF74BFA28B92CA206210220E6
:100F4000FFF7E2FC04E02BA206210220FFF7DCFC05
:100F500029A201210320FFF7D7FC04212248FFF733
:100F600036FA28B921A206210320FFF7CDFC04E0C0
:100F700020A206210320FFF7C7FC13A201210420B1
:100F8000FFF7C2FC03230A48028806210420FFF76A
:100F900099FC00BF012000F02BFC00BF10E700000F
:100FA00074000020910000209000002070000020BC
:100FB0007800002092000020416E696D6174696FB5
:100FC0006E204D6F646500004650533A00000000EB
:100FD000940000204E756D3A000000006D00002066
:100FE0004C4544313A000000000801404F4E20209B
:100FF000000000004F4646004C4544323A000000D5
:101000002DE9F04105460E461C4807681C4800685B
:10101000001D00F053FB50B91948006890F82C10DF
:101020000120884017490968814316480160681CFF
:1010300038B936B112480168091D134800F07CFB2D
:101040001AE07C190E4800684460BC4207D20C4884
:101050000168091D0D48006800F054FB0CE00848C9
:101060000168091D0A48006800F04CFB0948006847
:10107000844201D207480460BDE8F08128000020C6
:10108000140000202C0000204C0100201C00002037
:10109000180000204400002010B5044600F058FB62
:1010A00023480068401C224908602248006840B973
:1010B000204804600846006801280DD100F014F9AA
:1010C0000AE01D48006838B91A480068C06AE16A39
:1010D000884201D81748046018480068401C174926
:1010E000086094F82C1001208840154909680843CD
:1010F00013490860E16A01EB8101124A02EB8100A9
:10110000211D00F019FB00F035FB0B48006868B1A9
:1011100008480068C06AE16A884207D24FF08050F0
:1011200009490860BFF34F8FBFF36F8F10BD0000F8
:101130002400002014000020300000204000002087
:101140002C0000209800002004ED00E070B523E0A2
:1011500000F000FC1348006808B9012000E00020FE
:10116000054600F027FDBDB900F0F2FA0D48C06851
:10117000C468201D00F0A2FA0B480068401E0A490E
:1011800008600A480068401E0849086000F0F2FA4A
:10119000204600F00DF800BF044800680028D7D1B1
:1011A00070BD000038010020240000202000002035
:1011B00010B50446206B00F0EDFA204600F0EAFA84
:1011C00010BD000030B54FF42053174800F007045D
:1011D0002CB1C01D20F00700134C041B1B1B024642
:1011E000124C22600024114D6C60D018083820F099
:1011F00007000F4C206000240D4D2D686C600C4DD5
:101200002D682C601146441A4C60094C24680C600F
:10121000084D4C682C60084D4C682C604FF0004421
:10122000064D2C6030BD0000600100205000002001
:1012300058000020600000205C00002064000020B6
:1012400000BFFFF783FF064800680128F9D94FF077
:10125000805004490860BFF34F8FBFF36F8FF0E7F2
:101260009800002004ED00E02DE9FF5F80460E4667
:101270009146DDE90E7A109CA9F10100216B01EB8A
:10128000800B2BF0070B002507E0715D04F13400A3
:101290004155705D00B902E06D1C102DF5D300BF03
:1012A000002143200155052F00D30427E762201DAC
:1012B00000F025FA04F1180000F021FA2461C7F1CA
:1012C0000500A06164620020606484F84800414623
:1012D0005846039A00F0FEF82060BAF1000F01D0E2
:1012E000CAF80040BDE8FF9F10B5002407E004EBFA
:1012F00084010F4A02EB810000F0F4F9641C052C14
:10130000F5D30C4800F0EEF90B4800F0EBF90B4870
:1013100000F0E8F90A4800F0E5F90A4800F0E2F9BF
:1013200004480949086004480849086010BD0000E5
:1013300098000020FC000020100100202401002063
:10134000380100204C010020180000201C00002063
:1013500010B50146164800E0006803688B42FBD3D5
:101360000246436813448B4204D143684C682344CB
:10137000436001460A464B6813440468A34211D1F6
:101380000C4C03682468A34208D04B680468646866
:1013900023444B6003681B680B6005E0054B1B682A
:1013A0000B6001E003680B60884200D0016010BD53
:1013B00050000020580000200A490968096809B94E
:1013C000012100E0002121B14FF0FF31064A1160F8
:1013D00006E004490968C968C868034A41681160A1
:1013E00070470000180000204400002000BFBF200C
:1013F00080F31188BFF34F8FBFF36F8F00BF00BF23
:10140000FEE700002DE9F04105464FF0000800F02E
:10141000A1FA2B48006808B9FFF7D4FE29480068F4
:101420002840002847D145B1083505F0070020B114
:1014300005F00700C0F108000544002D3BD022480C
:101440000068854237D8214E3046046801E02646C0
:1014500024686068A84202D220680028F7D11848A2
:101460000068844227D0306800F1080820683060A6
:101470006068401B102807D967196068401B7860B6
:1014800065603846FFF764FF0F4960680968081A0D
:101490000D490860084600680D490968884203D272
:1014A000094800680A4908600649606809680843F5
:1014B00060600020206000F07DFB4046BDE8F081C8
:1014C00058000020640000205C0000205000002034
:1014D00060000020001F4FF080730360001F21F0A8
:1014E00001030360001F034B0360143802602038BF
:1014F00070470000ED1300081CB5044600F028F901
:10150000FFF732F9FFF7A9F817480221002332222A
:10151000CDE9001015A1174800F088FA16480321FC
:1015200000233222CDE9001014A1164800F07EFA03
:101530001548042100233222CDE9001013A11548DB
:1015400000F074FA144805210023C822CDE90010E8
:1015500012A1154800F06AFA1448006800F062F918
:1015600000F008F91CBD0000800000207461736B5E
:1015700031000000B1150008840000207461736B15
:1015800032000000CD150008880000207461736BE4
:1015900033000000E91500088C0000206F6C6564C2
:1015A0005F7461736B000000A50D00087C000020D3
:1015B0000BE0FFF71DF84FF4FA7000F019F9FFF790
:1015C0000FF84FF4FA7000F013F9F2E70BE0FFF7B1
:1015D0001FF84FF4FA7000F00BF9FFF711F84FF411
:1015E000FA7000F005F9F2E71CB5002500BF0027EE
:1015F000012653E002212A48FEF7E0FE0446B442E9
:1016000030D0142000F0F4F802212548FEF7D6FE71
:101610000446B44226D0264614B90025012721E00D
:10162000FFB1322D1DDA1F480078401C1D4908709B
:101630001D48006848B1FEF7D3FF1B48006800F062
:10164000F1F80020184908600BE0FEF7C9FF1648C2
:10165000022100233222CDE9001014A1154800F028
:10166000E5F90027B4B9681CC5B2322D12DB00279A
:101670000120114908700A2000F0BAF8002502E0A4
:101680000A2000F0B5F802210548FEF797FE002871
:10169000F6D001260A2000F0ABF800BFAAE7000050
:1016A000000C01406D000020800000207461736B0D
:1016B00031000000B11500089100002001460A69C0
:1016C000D1E901309860D1E901035860506888423F
:1016D00001D188685060002008611068401E1060C9
:1016E0001068704700F1080141604FF0FF318160E0
:1016F00000F10801C1600161002101607047002113
:101700000161704710B502460B685C1C0CB910698A
:1017100007E002F1080000E04068446824689C4249
:10172000FAD944684C604C68A160886041600A61E5
:101730001468641C146010BD42684A6093688B6032
:10174000936859609160086103685B1C036070478F
:1017500000BFBF2080F31188BFF34F8FBFF36F8F9F
:1017600000BF03480068401C014908607047000042
:101770006800002006480068401E054908600846C9
:10178000006820B9002080F3118800BF00BF7047B7
:101790006800002070B506463546D6B1083D2C4697
:1017A0000C4960680968084098B1206888B90949FF
:1017B000606809688843606000F0CCF8064960689A
:1017C00009680844044908602046FFF7C1FD00F09D
:1017D000F1F970BD640000205C00002003484FF068
:1017E000E021486107200861704700003F190100AF
:1017F00070B50446002544B100F0ACF80021204645
:10180000FFF7FEFB00F0D6F905463DB94FF08050DA
:1018100003490860BFF34F8FBFF36F8F70BD0000A7
:1018200004ED00E070B50546FFF792FF15B92748B3
:10183000006800E028460446201DFFF73FFF78B906
:10184000E06A00EB8000224951F8200040B994F88A
:101850002C10012088401F49096881431D48016000
:10186000A06A18B104F11800FFF728FF1A480068B1
:10187000401C1949086015480068844209D1211D9F
:101880001648FFF759FF16480068401C14490860C5
:1018900009E014480068401E124908602046FFF71E
:1018A00087FCFFF789FDFFF765FF0F48006858B117
:1018B00006480068844207D14FF080500B49086009
:1018C000BFF34F8FBFF36F8F70BD00001400002077
:1018D000980000202C00002040000020380100204B
:1018E00020000020240000203000002004ED00E053
:1018F0001CB5114800210B468022CDE900100FA134
:10190000104800F093F80446012C14D100BFBF200A
:1019100080F31188BFF34F8FBFF36F8F00BF4FF07D
:10192000FF30094908600120084908600020084983
:10193000086000F047F81CBD4800002049444C45B1
:101940000000000041120008440000203000002088
:101950002800002002480068401C014908607047C8
:101960004C0000201248006818B10120114908609D
:101970001DE000200F4908600F480068B0FA80F0B1
:10198000C0F11F0101EB81020C4B03EB82004268A6
:101990005268426000F108024368934202D14268F3
:1019A000526842604268D268054B1A6000BF7047B7
:1019B0004C000020380000202C000020980000205F
:1019C0001400002010B50A48006840F47F00084960
:1019D00008600846006840F07F400860FFF7FEFEA0
:1019E000002004490860FEF79DFB002010BD0000A8
:1019F00020ED00E06800002010B500BFBF2080F39C
:101A00001188BFF34F8FBFF36F8F00BF00F044F812
:101A100018B14FF080500449086000BF002080F3E7
:101A2000118800BF10BD000004ED00E02DE9FF4F5C
:101A300085B0804689461746DDE912ABB800FFF74E
:101A4000E1FC064656B14C20FFF7DCFC04460CB125
:101A5000266304E03046FFF79DFE00E000247CB1E1
:101A60000020CDE900ABCDE902403A464946404668
:101A7000089BFFF7F9FB2046FFF70EFB012501E06D
:101A80004FF0FF35284609B0BDE8F08F01490868DE
:101A900070470000280000202DE9F04100273A4857
:101AA0000068002863D139480068451C3748056044
:101AB0008DB93748D0F8008036480068344908604E
:101AC0003448C0F8008034480068401C324908603F
:101AD000FFF772FC00BF3148006885423BD300BF6E
:101AE0002B480068006808B9012000E0002020B100
:101AF0004FF0FF30294908602CE025480068C06895
:101B0000C4686668B54202D22448066022E0201DFF
:101B1000FFF7D4FDA06A18B104F11800FFF7CEFD5D
:101B200094F82C10012088401D49096808431C497D
:101B30000860E16A01EB81011A4A02EB8100211D74
:101B4000FFF7FAFD1849E06A0968C96A8842C7D3F5
:101B50000127C5E700BF14480068C06A00EB800099
:101B6000104951F82000012800D9012704E00F484E
:101B70000068401C0D4908600D48006800B101274D
:101B80003846BDE8F08100004C000020280000200D
:101B9000180000201C0000203C0000204400002011
:101BA0002C000020980000201400002034000020A9
:101BB0003800002070B500240026FFF7C9FD2E482C
:101BC0000068401E2C4908600846006800284FD174
:101BD0002A48006800284BD024E02948C068C4681F
:101BE00004F11800FFF76AFD201DFFF767FD94F868
:101BF0002C100120884023490968084321490860C6
:101C0000E16A01EB8101204A02EB8100211DFFF70F
:101C100093FD1E49E06A0968C96A884202D301201F
:101C20001B4908601648006808B9012000E0002040
:101C30000028D2D00CB1FFF7BFFB1648056865B18C
:101C400000BFFFF729FF10B10120114908606D1E88
:101C5000002DF6D100200F4908600D48006838B10A
:101C6000012630070C490860BFF34F8FBFF36F8F19
:101C7000FFF780FD304670BD4C000020240000209E
:101C8000240100202C0000209800002014000020D7
:101C9000380000203400002004ED00E000000000C7
:101CA000000000000000000000000000000000F83C
:101CB00000000000000000333000000000100C069F
:101CC000100C0600000000000000000040C078403A
:101CD000C0784000043F04043F040400007088FC06
:101CE00008300000001820FF211E0000F008F0005E
:101CF000E018000000211C031E211E0000F00888CF
:101D0000700000001E2123241927211010160E0038
:101D1000000000000000000000000000000000E0E3
:101D200018040200000000071820400000020418F8
:101D3000E00000000040201807000000404080F054
:101D4000804040000202010F01020200000000F08A
:101D5000000000000101011F01010100000000005E
:101D60000000000080B070000000000000000000D3
:101D7000000000000001010101010101000000005C
:101D800000000000003030000000000000000000F3
:101D900080601804006018060100000000E01008D0
:101DA0000810E000000F102020100F00001010F8A5
:101DB000000000000020203F2020000000700808E4
:101DC0000888700000302824222130000030088864
:101DD000884830000018202020110E000000C0208C
:101DE00010F8000000070424243F240000F80888AD
:101DF000880808000019212020110E0000E010883A
:101E000088180000000F112020110E00003808086B
:101E1000C83808000000003F00000000007088087B
:101E200008887000001C222121221C0000E01008FC
:101E30000810E0000000312222110F00000000C055
:101E4000C0000000000000303000000000000080F2
:101E500000000000000080600000000000008040E2
:101E600020100800000102040810200040404040FB
:101E7000404040000404040404040400000810204E
:101E80004080000000201008040201000070480893
:101E90000808F0000000003036010000C030C828FB
:101EA000E810E0000718272423140B000000C038B6
:101EB000E0000000203C23020227382008F8888830
:101EC00088700000203F202020110E00C03008083C
:101ED00008083800071820202010080008F8080813
:101EE0000810E000203F202020100F0008F888880C
:101EF000E8081000203F20202320180008F88888D8
:101F0000E8081000203F200003000000C03008084F
:101F10000838000007182020221E020008F80800D8
:101F20000008F808203F210101213F20000808F89F
:101F3000080800000020203F2020000000000808C2
:101F4000F8080800C08080807F00000008F888C082
:101F500028180800203F20012638200008F8080033
:101F600000000000203F20202020300008F8F8006A
:101F7000F8F80800203F003F003F200008F830C07C
:101F80000008F808203F200007183F00E01008086C
:101F90000810E0000F10202020100F0008F808089B
:101FA0000808F000203F210101010000E0100808AE
:101FB0000810E0000F18242438504F0008F88888D3
:101FC00088887000203F2000030C302000708808B3
:101FD000080838000038202121221C00180808F8C1
:101FE000080818000000203F2000000008F8080042
:101FF0000008F808001F202020201F000878880013
:1020000000C83808000007380E010000F80800F882
:102010000008F800033C0700073C0300081868802C
:102020008068180820302C03032C30200838C800A2
:10203000C83808000000203F2000000010080808F1
:10204000C83808002038262120201800000000FE93
:10205000020202000000007F40404000000C30C03F
:1020600000000000000000010638C000000202026B
:10207000FE000000004040407F000000000004021D
:102080000202040000000000000000000000000048
:102090000000000080808080808080800002020438
:1020A0000000000000000000000000000000808030
:1020B000808000000019242222223F2008F800809E
:1020C00080000000003F112020110E000000008061
:1020D00080800000000E11202020110000000080F0
:1020E0008088F800000E112020103F200000808022
:1020F00080800000001F222222221300008080F036
:10210000888888180020203F202000000000808060
:1021100080808000006B94949493600008F80080A5
:1021200080800000203F210000203F200080989800
:10213000000000000020203F202000000000008060
:102140009898000000C08080807F000008F80000A0
:1021500080808000203F24022D302000000808F8F5
:10216000000000000020203F2020000080808080B0
:1021700080808000203F20003F20003F8080008042
:1021800080800000203F210000203F200000808050
:1021900080800000001F202020201F008080008001
:1021A0008000000080FFA12020110E0000000080B0
:1021B00080808000000E112020A0FF8080808000A1
:1021C0008080800020203F212000010000008080CE
:1021D000808080000033242424241900008080E0C3
:1021E000808000000000001F202000008080000090
:1021F00000808000001F202020103F208080800071
:102200000080808000010E30080601008080008080
:10221000008080800F300C030C300F0000808000A5
:10222000808080000020312E0E31200080808000D0
:102230000080808080818E70180601000080808080
:10224000808080000021302C22213000000000001E
:10225000807C020200000000003F404000000000BF
:10226000FF00000000000000FF0000000002027CF0
:10227000800000000040403F000000000006010117
:10228000020204040000000000000000000002043C
:102290000912244890204080000000000000201017
:1022A000482412090402010000000000221408F46E
:1022B0000200FC04FC0402FE030200004482413FD1
:1022C00080601F007F2810610E30400000000080F9
:1022D00040301F10101010907000000000828180AC
:1022E0004041221408040201000000004020F028B0
:1022F000272424E424342C20E0000000808047229E
:10230000120A06037E828AB28780E00004444444B5
:10231000C42F2404048F0404E404040022120A06D7
:10232000FF060A12001F40807F0000000042820268
:1023300002FE020202FE020202C2000040404146CA
:10234000407F4040407F40444340400010EC27E441
:1023500034EC0004E4252624E404040040CF492F93
:10236000292F20104B827E020B102000104C444479
:10237000444445C64444444444540C00404044440E
:102380004444447F4444546444404000080602F2FC
:1023900052525252525252F2020A06000808884B18
:1023A00029090B0D0909294B88080800000000BE07
:1023B0002A2A2AEA2A2A2A3E00000000004442492A
:1023C0004949497F49494949414000001060028C10
:1023D000008040304F8808088878000004047E019F
:1023E0000080804020100906010000000000007FEE
:1023F000494949494949497F000000008141211D5F
:10240000214181FF8989898989818100004444248F
:10241000FF140024A47F8404FC00C0004040494A0B
:102420004948487E494848484841430000F80C0B59
:102430000808F840308F080808F80000007F2121C4
:1024400021217F0000004380403F00000000000089
:10245000804020904824120904020000000000007F
:102460000001020409122448102000002020242426
:102470002424BF64243428242220200010080402CD
:10248000FF494949494949FF0000000000482A1A0C
:102490007E19A940A4130A26423E000004044222E9
:1024A0001549807E000915224204040082BAAAAAB6
:1024B000BA82BE8220180FC808281800001E121207
:1024C0005E807F0080601C031C6080000080808034
:1024D00080808080808080808080000000000000FC
:1024E00000000000000000000000000000080838A4
:1024F000F8C0000000008060180800000000000024
:1025000000030F3C1806010000000000000000005E
:10251000000000000000000000000000000036364F
:1025200000000000000000000000000004E4252678
:1025300024E4042020FF20E22C202000104B827E87
:10254000020B90601C03003F4040700020242424B4
:10255000FE23222020FF20222CA0200000084884F7
:102560007F02414020130C142241F80000020202B5
:10257000020202E222120A0602000000000000002D
:102580000040807F000000000000000000FC040408
:1025900004FC040404FC040404FC0000007F282460
:1025A0002320202020212222227F0000404042CCF4
:1025B0000000FCA4A5A6A4A4A4BC00000080403F89
:1025C000488681BF849F848FA4BF800000000000E4
:1025D000000000000000000000000000000058386B
:1025E000000000000000000000000000808040208B
:1025F000100824C30408102040808000000000025E
:102600000202028242221A060000000000FC8484BA
:10261000FC10E82427E424342CE00000003F1010D4
:102620003F8043320E033E424243700020504C43F1
:1026300044481000FC061544847C0000007E2222E1
:10264000227E00101312125292423E008082828239
:10265000828282E2A2928A8682808000000000004C
:102660000040807F00000000000000001060028C2D
:10267000000042E2524AC64240C0000004047E010B
:1026800020108C4320184780403F0000AC260008F3
:1026900000000020980000003C0D000844270008BE
:1026A00098000020C82C00004C0D0008000000001D
:1026B00001020304010203040607080902040608D4
:1026C000000000000000000000000000000000000A
:1026D00000000000000000000000000000000000FA
:1026E00000000000000000000000000000000000EA
:1026F00000000000000000000000000000000000DA
:1027000000000000000000000000000000000000C9
:1027100000000000AAAAAAAA000000000000000011
:1027200000000000000000000000000000000000A9
:102730000000000000000000000000000000000099
:042740000000000095
:04000005080000ED02
:00000001FF
